:400000000080002011000000ED050000ED05000008B5044B1A6803F53F5302331A6000F005FB00BFFA46004010B5054C237833B9044B13B10448AFF300800123237010BD93
:400040004881FF1F00000000401A0000084B10B51BB108490848AFF300800848036803B910BD074B002BFBD0BDE81040184700BF000000004C81FF1F401A0000C880FF1F4E
:400080000000000008B50B4B1B78012B11D1094A53680133536041F28832934209D1054B00221A705A60642000F0B2FB024800F08DFB08BD6481FF1F441A000008B51C4B18
:4000C0001B7A012B33D11B4800F080FB002029E000F050FBA0F141032D2B23D8DFE803F0171B22222222222222222222221F222222222222222222222222222222222222FC
:40010000171B22222222222222222222221F0122074B5A7206E00122054B9A7202E00122034BDA720028D3D00022014B1A7208BD6481FF1F501A000010B584B000F066FC71
:4001400000F0FCFA00F070FC6B4800F03FFB00F003FD00F075FD00F0E7FD00F059FE00F0CBFE62B600F030FF00F0BEFF634800F053FF634800F0E0FF00F0FCFA4138372831
:4001800034D8DFE800F0282C1C3333333333333333333330333333332033333333243333333333333333282C1C3333333333333333333330333333332033333333240122CD
:4001C000504B1A7312E001224E4B1A700EE000224C4B1A700AE001224A4B5A7206E00122484B9A7202E00122464BDA72012000F023FCB8B1642000F00BFB00F02FFC414BBC
:400200001B7B13B93F4B1B7863B102463E49684600F0F2FF684600F0D9FA00F0C1FA0022384B1A73374B5B7A012B1ED1354C2372364800F0CBFA40F6980000F03BFC40F699
:40024000980000F0ABFC40F6980000F01BFD40F24C4000F08BFD40F24C4000F0FBFD2C4800F0B4FA0023637286E7264B9B7A012B1ED1244C2372274800F0A8FA4FF4C86014
:4002800000F018FC4FF4C86000F088FC40F6980000F0F8FC40F24C4000F068FD4FF4C86000F0D8FD1C4800F091FA0023A37263E7144BDB7A012B7FF45FAF184800F086FAD4
:4002C0004FF4C86000F0F6FB4FF4C86000F066FC4FF4C86000F0D6FC4FF4C86000F046FD4FF4C86000F0B6FD0D4800F06FFA0022044BDA7240E700BF601A0000BD00000094
:40030000850000006481FF1F701A00007C1A00008C1A0000A01A0000AC1A0000C01A0000D01A0000FEE700BFF0B40022174611E050F82760F3B226F0FF0608E001EB4205C9
:4003400011F812406D78A5550132013BDBB2002BF4D101371F2FEBD9F0BC704708B50A46002100F040FF08BDF8B5154B1B78DBB2144E3478E4B2144F3D78EDB203F0070105
:40038000124A11701B090132137044F00303337045F003033B7002220D4B1A70802203F2CC731A7020230B4A1370033213700A2000F044FA3D7034704422074B1A70F8BDEA
:4003C000CF010049F8460040F94600406E5800403D510040285B00407658004008B500F0F7FE08BD38B517222F4B1A8018232F4A13704FF49C710232118002321370042278
:400400002B492C48FFF7EAFF02222B4B1A7008224FF040231A70032103F500731970274B1B78DBB226490B70264B1A8041F25122023B1A80002419250CE0234B1B7803F01D
:40044000010343EA440404F003044FF4F07000F083FE013D0DB1032CEFD115B90320FFF761FF1A4B4FF480721A8007221A70002217490A704820023108701A700222033BE0
:400480001A7004220A331A70124A137843F003031370013A137843F001031370013A137843F08003137038BD8040004082400040A80800480041004000430040080100495E
:4004C000A146004022420040254200400440004006400040A243004038B572B6304A137843F00403137000240CE02E4D630019194A0011462A44084691882858FFF72EFF4B
:400500000134E4B2072CF0D927494FF09040FFF70BFF264A137843F0020313701032137843F002031370224C237843F040032370A2F58632513A137843F0100313700822CD
:400540001C491D48FFF74AFF0A221C491C48FFF745FF08221B491C48FFF740FF08221B491B48FFF73BFF0A221A491B48FFF736FF1A4A137843F008031370194D61232B70A9
:40058000FFF730FF81232B700122164B1A70FFF7EBFE0E2221461448FFF720FF38BD00BFE8460040E41A00008000004803500140A043004078080048025100408008004818
:4005C000C05100408C0800481251004094080048225100409C08004830510040224300400048004004000840B043004008B500F0C3FD03680C2B00D1FEE7FEE708B5094B80
:400600001A681044084BC31A802B02DC054B186005E000F0B1FD0C2303604FF0FF32104608BD00BFCC80FF1F9881FF1F08B5104E104D16E029686B68AC68002204E051F82E
:40064000040B43F8040B0432A242F8D1E868002203E0002143F8041B04328242F9D11035013E002EE6D100F08DFDFFF765FDFEE701000000701B000008B5104A104B1A6012
:40068000104A136843F40073136000230AE0032B03D80D4A52F8231000E00C490C4A42F8231001332F2BF2D90A4B1A780A4B1A70074A0A4B1A60FFF70FFF08BD0004FA055B
:4006C0000CED00E014ED00E000000000ED0500000080FF1FBC760040C080FF1F08ED00E07222074B1A702022FF331A700622653B1A70472210331A70022251331A7070472C
:400700008A64004010B500F02FFD04460A4A137843F020031370FF32137843F010031370043A137843F01003137000F061F8204600F01EFD10BD00BF9A64004008B5054B00
:400740001B7823B9FFF7CCFF0122024B1A70FFF7D9FF08BD7181FF1F014B1878704700BF49650040024B187800F07F00704700BF69650040084B1B78DBB213F0200F06D021
:40078000064A1078C0B213F01E0F02D17047002070470020704700BF696500404965004010B5FFF7DFFF0402FFF7D6FF204380B210BD00BF034B1B7813F0040FFAD1024B32
:4007C00018707047656500404565004038B5074B1B782BB938BDFFF7EDFF0134A4B201E005460024285D0028F5D138BD7181FF1F054A137843F0020313701032137843F051
:4008000002031370704700BFA243004001BE704710B5044605E0084B186800F09DFCA4F50044B4F5004FF6D8034B586800FB04F000F092FC10BD00BFD080FF1F08B5034BAC
:400840001B7A00FB03F000F087FC08BDD080FF1F70B504460E46074B1D681F2802D90020FFF7D4FF04F01F04103455F8240045F8246070BD08ED00E038B504460D46072961
:4008800002D90020FFF7C2FF1F2C02D90020FFF7BDFF04F01F0000F1604000F564406D01EDB2057038BD00BF08B50A280FD00C2802D0082806D102E04FF4805209E04FF41D
:4008C000807206E00020FFF7A1FF002201E04FF480620021084B198042F2107303FB02F313F5806301D503F2FF73DB12034A13600022034B1A8008BD8481FF1F8881FF1F9D
:400900008681FF1F38B500F02FFC05461E4A137843F0020313701032137843F0020313701A3A137843F0010313701032137843F00103137002F5AA521A32137843F00303E6
:4009400013700424114B1C70013B1A7802F0BF021A701A7842F003021A700822053B1A700222A3F59753123B1A70094A137843F0080313700A20FFF761FF064B1C602846BB
:4009800000F0F6FB38BD00BFAB4300400E5900402F5B004080E200E010B504460A280DD00C2802D0082804D101E0C42207E0442205E00020FFF72AFFC42200E08422034BA6
:4009C0001A702046FFF770FF10BD00BF0A59004008B5102000F050F807210220FFF74CFF07490220FFF734FF064A137843F0060313700C20FFF7D0FF0022034B1A8008BDCE
:400A0000750A0000095900408C81FF1F08B5054B1B7823B9FFF7DCFF0122024B1A70FFF771FF08BD7381FF1F024A137843F00103137070470859004010B5074B1B7813F050
:400A4000010401D10028F8D024B10120FFF7F6FE014B1B78204610BD09590040034B188880B2034B1B88C01A00B27047A25B00408681FF1F704700BF034B1A7800F0F80027
:400A800010431870704700BF02410040024A137843F08003137070477A650040014B1880704700BF146A0040014B1880704700BF946A0040014B1880704700BF546A004074
:400AC000014B1870704700BF8A650040014B1878704700BF6A650040014B188880B27047B46A004008B501E0FFF7F6FFFFF7EEFF10F0100FF8D108BD10B5154A137803F02E
:400B0000C00343F009031370124C237843F0010323702132137843F00103137044F62060FFF7BCFF44F62060FFF7BEFF0020FFF7C1FF0020FFF7C4FF00F016FB237843F07F
:400B40001003237000F014FBFFF7CCFF10BD00BF7A6500409A65004008B5054B1B7823B9FFF7CAFF0122024B1A70FFF78FFF08BD7481FF1F024A137843F0800313707047CD
:400B800078640040014B1880704700BF10680040014B1880704700BF90680040014B1880704700BF50680040014B1870704700BF89640040014B1878704700BF696400404D
:400BC000014B188880B27047B068004008B501E0FFF7F6FFFFF7EEFF10F0100FF8D108BD10B5154A137803F0C00343F0090313702032137843F001031370104C237843F0C7
:400C00000103237044F62060FFF7BCFF44F62060FFF7BEFF0020FFF7C1FF0020FFF7C4FF00F0A2FA237843F01003237000F0A0FAFFF7CCFF10BD00BF786400409964004066
:400C400008B5054B1B7823B9FFF7CAFF0122024B1A70FFF78FFF08BD7581FF1F024A137843F08003137070477D640040014B1880704700BF14680040014B1880704700BF8A
:400C800094680040014B1880704700BF54680040014B1870704700BF8B640040014B1878704700BF6B640040014B188880B27047B468004008B501E0FFF7F6FFFFF7EEFF2B
:400CC00010F0100FF8D108BD10B5154A137803F0C00343F0090313701D32137843F001031370104C237843F00103237044F62060FFF7BCFF44F62060FFF7BEFF0020FFF7DD
:400D0000C1FF0020FFF7C4FF00F02EFA237843F01003237000F02CFAFFF7CCFF10BD00BF7D6400409B64004008B5054B1B7823B9FFF7CAFF0122024B1A70FFF78FFF08BD4D
:400D40007681FF1F024A137843F08003137070477C640040014B1880704700BF18680040014B1880704700BF98680040014B1880704700BF58680040014B1870704700BF1F
:400D80008D640040014B1878704700BF6D640040014B188880B27047B868004008B501E0FFF7F6FFFFF7EEFF10F0100FF8D108BD10B5154A137803F0C00343F0090313702A
:400DC0002032137843F001031370104C237843F00103237044F62060FFF7BCFF44F62060FFF7BEFF0020FFF7C1FF0020FFF7C4FF00F0BAF9237843F01003237000F0B8F95C
:400E0000FFF7CCFF10BD00BF7C6400409D64004008B5054B1B7823B9FFF7CAFF0122024B1A70FFF78FFF08BD7781FF1F024A137843F08003137070477F640040014B1880A2
:400E4000704700BF1C680040014B1880704700BF9C680040014B1880704700BF5C680040014B1870704700BF8F640040014B1878704700BF6F640040014B188880B2704785
:400E8000BC68004008B501E0FFF7F6FFFFF7EEFF10F0100FF8D108BD10B5154A137803F0C00343F0090313701F32137843F001031370104C237843F00103237044F620607D
:400EC000FFF7BCFF44F62060FFF7BEFF0020FFF7C1FF0020FFF7C4FF00F046F9237843F01003237000F044F9FFF7CCFF10BD00BF7F6400409F64004008B5054B1B7823B926
:400F0000FFF7CAFF0122024B1A70FFF78FFF08BD7881FF1F084A137843F0010313701032137843F00103137002F64D32137843F001031370704700BFA3430040014B18704E
:400F4000704700BF034F0040014B1880704700BF044F0040014B1880704700BF064F004008B5164A137803F0010313700232137803F0FC031370124B1A7802F0CF021A70FB
:400F80001A7842F030021A701A7802F0F0021A701A7842F00F021A700A4A137843F00103137045F6BF50FFF7CFFF45F6BF50FFF7D1FF0020FFF7C2FF08BD00BF004F0040B1
:400FC0000B4F0040014F004008B5054B1B7823B9FFF7C6FF0122024B1A70FFF79BFF08BD7981FF1F014B1B685864704708ED00E04001C0B2014B1870704700BF01E400E050
:401000000222014B1A60704700E100E00222014B1A60704780E100E010B50446FFF7F6FF2046FFF7DFFF0020FFF7E2FFFFF7E8FF10BD00BF084A137843F0020313701032FE
:40104000137843F00203137002F65932137843F001031370704700BFA3430040014B1870704700BF0F4F0040014B1880704700BF104F0040014B1880704700BF124F0040EA
:4010800008B5164A137803F0010313700232137803F0FC031370124B1A7802F0CF021A701A7842F030021A701A7802F0F0021A701A7842F00F021A700A4A137843F00103A9
:4010C000137045F6BF50FFF7CFFF45F6BF50FFF7D1FF0020FFF7C2FF08BD00BF0C4F0040174F00400D4F004008B5054B1B7823B9FFF7C6FF0122024B1A70FFF79BFF08BD91
:401100007A81FF1F014B1B681864704708ED00E04001C0B2014B1870704700BF00E400E00122014B1A60704700E100E00122014B1A60704780E100E010B50446FFF7F6FFC2
:401140002046FFF7DFFF0720FFF7E2FFFFF7E8FF10BD00BF000000000230800803D000BF01380046FCD17047EFF3108072B6704780F31088704700BF014B1868704700BF6B
:401180004081FF1F0E4B70B51E460E4C0025E41AA410A54204D056F8253098470135F8E700F0D4FC084B094C1E46E41AA4100025A54204D056F8253098470135F8E770BDC9
:4011C000581B0000581B0000581B0000601B000010B5431E0A44914204D011F8014B03F8014FF8E710BD03460244934202D003F8011BFAE7704700000EB400B54FF40271A2
:401200009CB0ADF814106FF00041049107914FF6FF711DAB02900690084853F8042BADF81610006802A9019300F064F8029B00221A701CB05DF804EB03B070474081FF1FFD
:401240002DE9F0478E6882469E420C46914698463ED88A8912F4906F3AD02568096902236F1A656905EB450595FBF3F57B1C43449D4238BF1D4653050FD5294600F040FBEA
:40128000064698B13A462169FFF7A2FFA38923F4906343F08003A38113E02A4600F08EFB064670B92169504600F0DEFA0C23CAF80030A3894FF0FF3043F04003A381BDE8B5
:4012C000F08726613E44266046466561ED1BA560464528BF464649463246206800F0A8FAA36800209B1BA36023681E442660BDE8F08700002DE9F04F9DB003938B898046E5
:401300001C060D4616460DD50B695BB9402100F0F7FA2860286118B90C23C8F80030CDE040236B610023099320238DF82930DFF89CB130238DF82A3037463C4614F8013BD6
:401340001BB9B7EB060910D003E0252BF9D02746F3E74B46324629464046FFF771FF013000F0A780099B4B4409933B78002B00F0A08000234FF0FF32049307930592069368
:401380008DF853301A930126052221784E4800F041FA671C049B38B14B4A3C46801A06FA00F018430490EFE7D90644BF20228DF853201A0744BF2B228DF8532022782A2AEC
:4013C00003D0079A00210A200BE0039A111D12680391002A10DA524243F00200079204900BE027463B780134303B092B03D800FB02320121F5E701B107923B782E2B1ED133
:401400007B782A2B0AD1039B02371A1D1B680392002BB8BF4FF0FF33059310E0002319460593781C0A2407463A780130303A092A03D804FB01210123F5E703B105910322B4
:401440003978224800F0E6F940B14023CBEB000003FA00F0049B013718430490397806221B487E1C8DF8281000F0D4F988B1194B33B9039B073323F007030833039314E032
:4014800003AB00932A46144B04A94046AFF3008007E003AB00932A460F4B04A9404600F093F8B0F1FF3F824603D0099B5344099342E7AB895B0601D4099801E04FF0FF3053
:4014C0001DB0BDE8F08F00BF161B00001C1B0000201B000000000000411200002DE9F04791461F460A698B6806469342B8BF1346C9F8003091F843200C46DDF8208012B1FF
:401500000133C9F800302368990642BFD9F800300233C9F80030256815F0060510D104F1190A07E00123524639463046C04701301AD00135E368D9F800209B1A9D42F1DB12
:4015400094F843302268003318BF012392060FD5E118302081F843005A1C94F845102244023382F8431003E04FF0FF30BDE8F08704F1430239463046C0470130F4D0226852
:40158000D9F80050E36802F00602042A08BF5D1B2269A3680CBF25EAE57500259342C4BF9B1AED184FF000091A344D4509D00123224639463046C0470130D5D009F10109F4
:4015C000F3E70020BDE8F0872DE9F04317460A7E85B06E2A984606460C460C9B01F1430E00F0AE8011D8632A22D009D8002A00F0BB80582A40F0CA8081F84520834955E0DD
:40160000642A1ED0692A1CD0C0E0732A00F0B08009D86F2A2ED0702A40F0B8800A6842F020020A603EE0752A24D0782A3AD0ADE01A6801F14205111D1960136884F84230F3
:40164000A8E021681A6811F0800F02D0111D196008E011F0400F02F10401196002D0B2F9003000E01368002B3CDA2D225B4284F8432037E021681A6811F0800F02D0111D5F
:40168000196007E011F0400F02F10401196001D0138800E01368227E5C496F2A14BF0A2208221BE078225A4984F845202268186812F0800F00F104051D6003D1550601D50B
:4016C000038800E00368D00744BF42F0200222601BB9226822F0200222601022002084F8430001E049490A226568002DA56008DB206820F0040020602BB9002D7DD1754688
:401700000CE0002B79D07546B3FBF2F002FB1033CB5C05F8013D03460028F5D1082A0BD12368DA0708D5236962689A42DEBF302305F8013C05F1FF35C5EB0E0323612EE0F5
:4017400008681A6810F0800F496903D0101D1860136808E010F0400F02F104001860136801D0198000E0196000232361754616E01A68111D1960156800216268284600F018
:4017800049F808B1401B6060636804E004F1420584F8422001232361002384F84330CDF800803B4603AA21463046FFF797FE013002D14FF0FF3026E023692A46394630464D
:4017C000C0470130F5D023689B0710D5002504F1190907E001234A4639463046C0470130E7D00135E368039A9B1A9D42F2DBE068039B9842B8BF184605E00B7804F1420567
:4018000084F842308AE705B0BDE8F083271B0000381B000010B5C9B202449042034605D01C7801308C42F8D1184610BD002010BD884210B501EB020301D8421E0BE098427F
:40184000FBD28118D21AD34204D013F8014D01F8014DF8E710BD994204D011F8014B02F8014FF8E710BD000038B50546002944D051F8043C0C1F002BB8BFE41800F0D4F864
:401880001E4A1368114613B96360146030E0A3420DD92268A018834201BF18685B681218226063600C6023E0A24203D813465A68002AF9D118681918A1420BD1216801441C
:4018C00058188242196013D110685268014419605A600DE002D90C232B6009E021686018824201BF106852680918216062605C602846BDE8384000F098B838BD8081FF1F8C
:4019000070B5CD1C25F0030508350C2D38BF0C25002D064601DBA94202D90C23336046E000F082F8234B1C681A462146A1B10B685B1B0ED40B2B03D90B60CC18CD501EE01F
:401940008C420BBF63684B681360636018BF0C4615E00C464968E9E7174C23681BB9304600F052F820602946304600F04DF8431C18D0C41C24F00304A0420DD12560304621
:4019800000F053F804F10B00231D20F00700C31A0ED05A42E25070BD211A304600F034F80130EBD10C233360304600F03EF8002070BD00BF8081FF1F7C81FF1FF8B5074687
:4019C00015460E4621B91146BDE8F840FFF798BF1AB9FFF749FF2846F8BD00F027F885420ED929463846FFF78BFF044650B131462A46FFF7EDFB31463846FFF735FF01E06F
:401A00003046F8BD2046F8BD38B5064C0023054608462360FEF7F2FD431C02D1236803B12B6038BD9081FF1F7047704751F8040C0028BEBF091851F8043CC01804387047FD
:401A400000000000494E544552525550540D0A004849544C205645524946590D0A000000434F4D20506F7274204F70656E000000256C75206D560D0A00000000436C656E6D
:401A80006368696E672E2E2E0D0A0000436C656E636820636F6D706C657465210D0A00005370696465792E2E2E0D0A0053706964657920636F6D706C657465210D0A000050
:401AC0004E65757472616C2E2E2E0D0A000000004E65757472616C20636F6D706C657465210D0A00004F00401800405100403000F0510040100000000140001000140140FF
:401B0000000800400140000A004C014000020050014020004300232D302B2000686C4C00656667454647003031323334353637383941424344454600303132333435363762
:401B4000383961626364656600000000F8B500BFF8BC08BC9E4670474D00000079060000F8B500BFF8BC08BC9E46704729000000801B0000C880FF1F8000000050000000DB
:401B8000000000009881FF1F0000E02EC05D00001800000000366E010000000000000000000000000000000000000000000000000000000000000000141B000000000000D7
:401BC0000000000000000000000000000000000000000000000000000000000000000000000000000000000000000000000000000000000000000000E080FF1F0000000067
:401C000000000000000000000000000000000000000000000000000000000000000000000000000000000000000000000000000000000000000000000000000000000000A4
:401C40000000000000000000000000000000000000000000000000000000000000000000000000000000000000000000000000000000000000000000000000000000000064
:401C80000000000000000000000000000000000000000000000000000000000000000000000000000000000000000000000000000000000000000000000000000000000024
:401CC00000000000000000000000000000000000000000000000000000000000000000000000000000000000000000000000000000000000000000000000000000000000E4
:020000040003F7
:0200000480007A
:40000000044F004006520040056400400365004004060140020701405508014037090140550A0140370B01404C0C01402C0D01403E0E0140200F0140561401403E1501401E
:400040004C180140381901405F1A0140471B0140044001400341014006420140064301400A450140014601400148014002490140064C01400A4D014006500140015101404C
:4000800001800A270D801627088009801003110561806440890D8A728B0D8D0D8F0D850F89388A0D39083F0459045F01272083202E0134013B804020410649FF4AFF4BFFED
:4000C0004DA04F0450185280580459045A045B045C105F01604062C06440654066C068C06AC06CC06EC0801F8502862088088B058E069019920295019620980199029D028B
:400100009E01A010A407A618A818AC19AD02AE04B304B420B502B61FB701BA80BE10BF10C020C106C5D0C610C702C81AC9FFCAFFCBFFCDAFCE0FCF04D018D405D804D904BD
:40014000DA04DB04DC01DF01E040E2C0E440E540E6C0E8C0EAC0ECC0EEC000080180028404200604082009880B80108112201320178019401A041B401C081D20225426804B
:4001800027012801294032A439083A104120452049014A084E085108521859015A84778089048B409020911C962099A09A229B209D40A080A6A0C00FC20FC48FCA08CC0E7D
:4001C000CE06D024D224D60B000E01040402060C080109020E02100E140C150616021701180119011B061D07200823012404280C29062C012D062F013307340E36013B08B3
:400200004020410649FF4AFF4BFF4DA04F04501856025711580459045A045B045C115D105F01604062C06440654066C068C06AC06CC06EC087019B01B501BF10C030C102EB
:40024000C5D0C610C702C81AC9FFCAFFCBFFCDAFCE0FCF04D018D405D904DA04DB04DF01E040E2C0E440E540E6C0E8C0EAC0ECC0EEC0019002A0080109080A041082132425
:4002800019A01B80210C2708280129402A202B80310832A03420371038203A023C08400443104420460848044D015404560857205A205D015E805F08680269146A04709007
:4002C000722273249004A240A720AA40C00FC20EC40FCA0DCC2ECE45D064D204D6D4EC0102011E041F01270229022A022D01300431013202340137024020410649FF4AFF82
:400300004BFF4DA04F0450185280580459045A045B045F01604062C06440654066C068C06AC06CC06EC086048F0192019A029B01A604AA02B004B202B401B701BE04C02094
:40034000C106C5D0C601C702C816C9FFCAFFCBFFCDAFCE0FCF04D018D280D405D804D904DA04DB04DF01E040E2C0E440E540E6C0E8C0EAC0ECC0EEC00004064009220D40A4
:40038000101012081608180419041A801D201E401F042302264027402C102E482F243120368039804120452049014A084E085140528859055B40710276408F02B001C01442
:4003C000C28AC446CA70CC14CE08D024D224D60B17012F0137014030410649FF4AFF4BFF4DA04F04501859045A045F01604062C06440654066C068C06AC06CC06EC08201B7
:4004000083018A0296029E04A404B004B201B402B501BE10C030C106C5D0C712C832C9FFCAFFCBFFCDAFCE0FCF04D018D280D405D804D904DA04DB04DF01E040E2C0E44034
:40044000E540E6C0E8C0EAC0ECC0EEC0041007400C080F0217041C101D081E48200227042B0131083F024010450848084C084F01540857015E485F017740C050C2A0C42068
:40048000CA08CC02CE80D042D224D6D0052407400F0C1531174419401C031D411F302102220124022570270928032D5035033603377C388039203E404001464049FF4A0763
:4004C0004BFF4C404D204EF04F055008580459045A045C105D015F01604061A8624063208101850687088A018C0191069318950697089B109E01A30AA514A601A708A801E1
:40050000B001B301B71EBB80BE01BF04C046C102C5E0C7BCC832C9FFCAFFCBFFCEF0CF44D00CD401D804D904DA04DB04DC10DD11DF01E6C0EA40EB020410060407010940A0
:400540000C801094141418011E80200C21402220254026842701281029012B012C90300432803320340436203701380439803D013F08400144044701488049014D014E081C
:4005800050105320560457055C105D015E8880108404881489408C808D408E08C0C0C281C46ECACBCCEECECAD0A8D220D6F0E004E402EE0207020B010F02110219021F01DC
:4005C0003102350139023F1059045C105F01818085F0870389408A048D338F0891F395229601970499339A029BC0A1C0A204A333A511A602A704A9C0AA01AF33B103B201BE
:40060000B402B5F0B604B70CBB20BE40BF40C025C104C206C401C50EC60CC805C9FFCAFFCBFFCC62CDA0CEF0CF41D00CD418D804D904DA04DB04DC10DD11DF01E640E70296
:40064000E910EA30EB10ED10EE10EF12012009200A2010801120121019481B2020012110222124042780282029802A202B403224330136203781382039083A023B443C202B
:400680003F84400141104301481049A050805A02600461409020911C99A09A329B019C20A120A340A580A620C002C206C40ECA0FCCB7CE7FD00DD20CD601D80C051F080837
:4006C000091F0D080F1412021512160C17091A022505272A2E013002311C320433033401360837203E014020410449FF4AFF4BFF4DA04F04501852805405580459045A04F9
:400700005B045C105F01604062C06440654066C068C06AC06CC06EC08101830E860588088F03910C92019303970899019A069B069E03A006A201A70CAA02B208B607B70F2B
:40074000BA80BB80BE04C060C104C5D1C720C823C9FFCAFFCBFFCDAFCE0FCF04D018D804D904DA04DC11DF01E040E2C0E440E540E6C0E8C0EAC0ECC0EEC003080604072089
:4007800009110A240C100E010F8010021712184019801A041B181D041E01218022042340270228202C1032043608372239143B403E013F804204430245014D024E104F2023
:4007C00055015702580859827002804881048208831084108A018B228C208E048F409114962897409C20A590AF20B108C062C2DEC451CA42CCE2CE9ED085D220D60BE22080
:40080000E471E680EC08EE02304033083680CC709C40A680A708128014409C40A680A708C4306B8077048384A708DC60E280570858405C108F089840B040D403D604E0082B
:40084000E801A810A708AF08EE401F1063026708C601D602D8011280700480048E80AF14B301C408DC01E202E80100030C030E0110031A021C03003A000000000000040096
:4008800080004080800080000000000000CBCB00C000000000070700070000000200000000000000020000000100180100000000000000000000000000000000000000006F
:4008C00000000000000000000000000000000000000000000000000000000000000000000000000000000000000000000000000000000000000000000000000000000000F8
:4009000000000000000000000000000000000000000000000000000000000000000000000000000000000000000000000000000000000000000000000000000000000000B7
:400940000000000000000000000000000000000000000000000000000000000000000000000000000000000000000000000000000000000000000000000000000000000077
:400980000000000000000000000000000000000000000000000000000000000000000000000000000000000000000000000000000000000000000000000000000000000037
:0200000490006A
:0400000000004005B7
:0200000490105A
:04000000BC90ACAF55
:0200000490303A
:02000000FE07F9
:0200000490402A
:4000000000000000000000000000000000000000000000000000000000000000000000000000000000000000000000000000000000000000000000000000000000000000C0
:400040000000000000000000000000000000000000000000000000000000000000000000000000000000000000000000000000000000000000000000000000000000000080
:400080000000000000000000000000000000000000000000000000000000000000000000000000000000000000000000000000000000000000000000000000000000000040
:4000C0000000000000000000000000000000000000000000000000000000000000000000000000000000000000000000000000000000000000000000000000000000000000
:0200000490501A
:0C00000000012E16106900012E230E7066
:00000001FF